:1000000050C200006FC200006DC200006BC2000051
:1000100069C2000067C2000065C2000063C2000040
:1000200061C200005FC200005DC200005BC2000050
:1000300059C2000057C200000C946B1453C2000058
:1000400051C200004FC200004DC200004BC2000070
:1000500049C2000047C2000045C2000043C2000080
:1000600041C200003FC200003DC200003BC2000090
:1000700039C2000037C2000035C2000033C20000A0
:1000800031C200002FC200002DC200002BC20000B0
:1000900029C2000027C2000025C200000C942A09D2
:1000A0000C945C090C948E090C94C0091BC20000CE
:1000B00019C2000017C2000015C2000013C20000E0
:1000C00011C200000FC200000DC200000BC20000F0
:1000D00009C2000007C2000005C2000003C2000000
:1000E00001C20000FFC10000FDC10000FBC1000013
:1000F000F9C10000F7C10000F5C10000F3C1000024
:10010000F1C10000EFC10000EDC10000EBC1000033
:10011000E9C10000E7C10000E5C10000D3C700004D
:100120000C9494080C94C6080C94F808DBC10000E9
:10013000D9C10000D7C10000D5C10000D3C1000063
:10014000D1C10000CFC10000CDC10000CBC1000073
:10015000C9C10000C7C10000C5C10000C3C1000083
:10016000C1C10000BFC10000BDC10000BBC1000093
:10017000B9C10000B7C10000B5C10000B3C10000A3
:10018000B1C10000AFC10000ADC10000ABC10000B3
:10019000A9C10000A7C10000A5C10000A3C10000C3
:1001A000A1C100009FC100009DC100009BC10000D3
:1001B00099C1000097C1000095C1000093C10000E3
:1001C00091C100008FC100008DC100008BC10000F3
:1001D00089C1000087C1000085C1000083C1000003
:1001E00081C100007FC100007DC100007BC1000013
:1001F00079C1000077C1000075C10000AC17AC17D1
:10020000AC17E317D317E117AC17AC17E317D317E5
:10021000000000000000002020202020002050507E
:1002200050000000005050F850F850502078A07056
:1002300028F020C0C810204098186090A040A890D6
:100240006860204000000000102040404020104026
:10025000201010102040005020F8205000002020D6
:10026000F820200000000000602040000000F8009E
:1002700000000000000000606000081020408000C6
:10028000708898A8C888702060202020207070880E
:1002900008102040F8F81020100888701030509096
:1002A000F81010F880F008088870304080F08888D6
:1002B00070F80810204040407088887088887070FE
:1002C00088887808106000606000606000006060EE
:1002D00000602040081020402010080000F800F8BE
:1002E00000008040201020408070880810200020EE
:1002F00070880868A8A87070888888F88888F0884E
:1003000088F08888F070888080808870E090888885
:100310008890E0F88080F08080F8F88080E080802D
:100320008070888080988870888888F8888888702D
:10033000202020202070381010101090608890A08D
:10034000C0A09088808080808080F888D8A8888825
:1003500088888888C8A898888870888888888870DD
:10036000F08888F080808070888888A89068F088FD
:1003700088F0A09088788080700808F0F82020200D
:100380002020208888888888887088888888885075
:1003900020888888A8A8D88888885020508888888D
:1003A000885020202020F80810204080F838202095
:1003B0002020203800804020100800E0202020204D
:1003C00020E020508800000000000000000000F83D
:1003D00040201000000000000070087888788080BD
:1003E000B0C88888F000007080808870080868981D
:1003F00088887800007088F88070304840E040407D
:1004000040000078887808308080B0C888888820CC
:100410000060202020701000301010906040404894
:1004200050605048602020202020700000D0A8A8F4
:1004300088880000B0C88888880000708888887024
:100440000000F088F08080000068987808080000BC
:10045000B0C8808080000070807008F04040E040AC
:100460004048300000888888986800008888885054
:100470002000008888A8A8500000885020508800DC
:100480000088887808700000F8102040F8102020BC
:10049000402020102020202020202040202010203C
:1004A000204011241FBECFEFCDBFDFE5DEBF00E04F
:1004B0000CBF10E2A0E0B0E2E6E6FBE300E00BBF19
:1004C00002C007900D92AE39B107D9F723E2AEE929
:1004D000B0E201C01D92A33AB207E1F70E942419CD
:1004E0000C94B11D8DCD04C0615071098109910931
:1004F0006115710581059105B9F70895BF92CF92F5
:10050000DF92EF92FF920F931F93CF93DF931F928F
:10051000CDB7DEB700E016E06894FF24F3F8F801E9
:10052000F68264E070E080E090E0DDDFF801F582C3
:1005300064E070E080E090E0D6DF0F2EFBE2BF2E9B
:10054000F02DB98280EA99E043D4C12CD12C7601F8
:1005500000E412E42FE030E043E0BE016F5F7F4F24
:1005600080EA99E064D400E616E0FF24F394F801F1
:10057000F682B982BE016F5F7F4F80EA99E071D445
:10058000F801F682E0EAF9E0818185FFFDCF80EA9B
:100590008093A009E0EAF9E0818186FFFDCFE0EADF
:1005A000F9E080E481838081BE016F5F7F4F80EA44
:1005B00099E06DD48BE28983BE016F5F7F4F80EA43
:1005C00099E04FD481E080936606E0EAF9E081810A
:1005D00085FFFDCF86EA8093A009E0EAF9E08181FA
:1005E00086FFFDCFE0EAF9E080E481838081BE01EF
:1005F0006F5F7F4F80EA99E04AD48BE28983BE0126
:100600006F5F7F4F80EA99E02CD481E0809366068B
:10061000E0EAF9E0818185FFFDCF88EC8093A009B5
:10062000E0EAF9E0818186FFFDCFE0EAF9E080E4CD
:1006300081838081BE016F5F7F4F80EA99E027D47C
:100640008BE28983BE016F5F7F4F80EA99E009D416
:1006500081E080936606E0EAF9E0818185FFFDCFC5
:1006600082EA8093A009E0EAF9E0818186FFFDCF6C
:10067000E0EAF9E080E481838081BE016F5F7F4F13
:1006800080EA99E004D48BE28983BE016F5F7F4FDB
:1006900080EA99E0E6D381E080936606E0EAF9E03B
:1006A000818185FFFDCF8FE28093A009E0EAF9E028
:1006B000818186FFFDCFE0EAF9E080E481838081DB
:1006C000BE016F5F7F4F80EA99E0E1D38BE28983BF
:1006D000BE016F5F7F4F80EA99E0C3D381E08093D2
:1006E0006606E0EAF9E0818185FFFDCF88EF80931F
:1006F000A009E0EAF9E0818186FFFDCFE0EAF9E0B8
:1007000080E481838081BE016F5F7F4F80EA99E042
:10071000BED38BE28983BE016F5F7F4F80EA99E091
:10072000A0D381E080936606E0EAF9E0818185FF4D
:10073000FDCF1092A009E0EAF9E0818186FFFDCFAC
:10074000E0EAF9E080E481838081BE016F5F7F4F42
:1007500080EA99E09CD38BE28983BE016F5F7F4F73
:1007600080EA99E07ED381E080936606E0EAF9E0D2
:10077000818185FFFDCF81E28093A009E0EAF9E065
:10078000818186FFFDCFE0EAF9E080E4818380810A
:10079000BE016F5F7F4F80EA99E079D38BE2898356
:1007A000BE016F5F7F4F80EA99E05BD381E0809369
:1007B0006606E0EAF9E0818185FFFDCF81E880935C
:1007C000A009E0EAF9E0818186FFFDCFE0EAF9E0E7
:1007D00080E481838081BE016F5F7F4F80EA99E072
:1007E00056D38BE28983BE016F5F7F4F80EA99E029
:1007F00038D381E080936606E0EAF9E0818185FFE5
:10080000FDCF81E28093A009E0EAF9E0818186FFD3
:10081000FDCFE0EAF9E080E481838081BE016F5F73
:100820007F4F80EA99E033D38BE28983BE016F5F0B
:100830007F4F80EA99E015D381E080936606E0EA75
:10084000F9E0818185FFFDCF8FEA8093A009E0EA7E
:10085000F9E0818186FFFDCFE0EAF9E080E4818361
:100860008081BE016F5F7F4F80EA99E010D30F90C7
:10087000DF91CF911F910F91FF90EF90DF90CF907C
:10088000BF9008958FEF80937000809371008093E4
:10089000720080937300809374008093750080933E
:1008A00076000895CF93DF931F92CDB7DEB79FB741
:1008B0009983F8949981E82FF0E0E059FF4F609513
:1008C0008081682360839FBF0F90DF91CF9108954F
:1008D000CF93DF931F92CDB7DEB79FB79983F8947C
:1008E0009981E82FF0E0E059FF4F8081682B608309
:1008F0009FBF0F90DF91CF910895FF920F931F93A9
:10090000CF93DF931F92CDB7DEB7082FF62E142FAB
:100910001AD10F70006B8BE28983BE016F5F7F4F2E
:1009200080EA99E09ED281E080936606E0EAF9E0F1
:10093000918195FFFDCF0093A009E0EAF9E0818164
:1009400086FFFDCFE0EAF9E080E481838081BE018B
:100950006F5F7F4F80EA99E09AD20F2D0F77029553
:100960000F7000618BE28983BE016F5F7F4F80EA69
:1009700099E077D281E080936606E0EAF9E0818130
:1009800085FFFDCF0093A009E0EAF9E0818186FFB1
:10099000FDCFE0EAF9E080E481838081BE016F5FF2
:1009A0007F4F80EA99E073D20F2D0F708BE289831D
:1009B000BE016F5F7F4F80EA99E053D281E0809360
:1009C0006606E0EAF9E0818185FFFDCF0093A0098A
:1009D000E0EAF9E0818186FFFDCFE0EAF9E080E41A
:1009E00081838081BE016F5F7F4F80EA99E04FD2A3
:1009F0008BE28983BE016F5F7F4F80EA99E031D23D
:100A000081E080936506E0EAF9E0818185FFFDCF12
:100A10001093A009E0EAF9E0818186FFFDCFE0EACA
:100A2000F9E080E48183808181E080936606BE01E5
:100A30006F5F7F4F80EA99E02AD20F90DF91CF91CC
:100A40001F910F91FF9008950F931F93CF93DF9302
:100A50001F92CDB7DEB78EE990E270D04FDD8BE20A
:100A60008983BE016F5F7F4F80EA99E0FAD181E010
:100A700080936606E0EAF9E0818185FFFDCF80E49E
:100A80008093A009E0EAF9E0818186FFFDCFE0EAEA
:100A9000F9E080E481838081BE016F5F7F4F80EA4F
:100AA00099E0F5D100E00AC040E0612F802F25DFFA
:100AB0001F5F1038C9F70F5F043011F010E0F4CF5A
:100AC0000F90DF91CF911F910F910895FF920F9397
:100AD0001F93CF93DF9388234CF1603238F5D42FE6
:100AE000C82FF62EF694F694F69470E088E0F89EFF
:100AF00060197109112481E090E08C0102C0000F9F
:100B0000111F6A95E2F76C2F8F2D2BD0D13021F079
:100B100028F0D23031F006C0802B04C0009580232D
:100B200001C08027482F6C2F8F2DE7DEDF91CF91FA
:100B30001F910F91FF90089514C0089580939E22F5
:100B400090939F22089520919E2230919F2290E8B9
:100B5000899F200D311D1124F901E60FF11D4083FD
:100B6000089520919E2230919F2290E8899F200D28
:100B7000311D1124F901E60FF11D80810895FF92C6
:100B80000F931F93CF93DF93E42FF0E0E80FF11D55
:100B9000E138F1051CF0C0E84C2F481B442309F450
:100BA0004AC0D62FD695D695D69570E098E0D99FB5
:100BB000601971091124E1E0F0E0DF0102C0AA0F21
:100BC000BB1F6A95E2F7FA2E213021F098F022300F
:100BD00019F131C0C42F1FEF180F012F0C0F602F18
:100BE0008D2FAADF4F2D482B602F8D2F86DEC15011
:100BF000A1F721C0C42F1FEF180FFA2EF094012F78
:100C00000C0F602F8D2F98DF4F2D4823602F8D2FD5
:100C100074DEC150A1F70FC0C42F1FEF180F012FB2
:100C20000C0F602F8D2F88DF4F2D4827602F8D2FC1
:100C300064DEC150A1F7DF91CF911F910F91FF901A
:100C40000895FF920F931F93CF93DF93222369F0B0
:100C5000F42E182FC22FDFEFD60F6D2F6C0F202F21
:100C60004F2D812F8CDFC150C1F7DF91CF911F91A4
:100C70000F91FF900895AF92BF92CF92DF92EF92C3
:100C8000FF920F931F93CF93DF93C82FE62EB42EBE
:100C9000690100E0F901248143816B2D8E2DD1DFA4
:100CA000F6018081811139C08381282F26952695F0
:100CB0002695877009F02F5FF601A4808C2F90E0B5
:100CC0003581831B91092A9D90011124829FA001E7
:100CD000839F500D929F500D112401811281040FAA
:100CE000151FF601F380FF20A1F0D0E0C0E08E2DAB
:100CF0008C0F9C2F977021F4F801D4910F5F1F4F38
:100D0000DD231CF441E06B2DE1DEDD0FCF5FFC1233
:100D1000EECFB394AA94A110E4CFDF91CF911F91AD
:100D20000F91FF90EF90DF90CF90BF90AF9008951C
:100D3000DF92EF92FF920F931F93CF93DF93D62E04
:100D4000042F7901EC01162F89918A3031F4F701D3
:100D500084818F5F080F1D2D09C08D3039F09701F8
:100D6000402F612F88DFF7018381180F888181115F
:100D7000EBCFDF91CF911F910F91FF90EF90DF901C
:100D80000895CF93DF93FC0120E030E0C62FD0E040
:100D9000DE01022E02C0B595A7950A94E2F7A0FDE8
:100DA000508B2F5F3F4F31962830310589F740FF38
:100DB0000AC041FF03C0FC01658302C0FC016683D9
:100DC000FC01618302C0FC016283DF91CF91089531
:100DD000803A28E0920721F460E183E063CD089532
:100DE000803B28E0920721F460E283E05BCD089528
:100DF000803A29E0920721F460E184E053CD089520
:100E0000803B29E0920721F460E284E04BCD089515
:100E1000803A2AE0920721F460E185E043CD08950D
:100E2000803A9B4019F460E186E03CCD08950F9331
:100E30001F93CF93DF9300D000D0CDB7DEB70983E7
:100E40001A832B833C834D831E82BE016F5F7F4FCD
:100E50003AD42696CDBFDEBFDF91CF911F910F917F
:100E60000895FB018081E82FE695E695E69540E23E
:100E7000E49FF0011124FA5F877021E030E0A901BE
:100E800002C0440F551F8A95E2F746830895FB017F
:100E90008081E82FE695E695E69540E2E49FF00133
:100EA0001124FA5F877021E030E0A90102C0440FED
:100EB000551F8A95E2F74583089543E050E061E0CD
:100EC00080EE97E05EDF43E050E062E080EE97E086
:100ED00058DF43E050E060E180E696E052DF41E019
:100EE00050E460E280E696E04CDF40E05BE160E2E7
:100EF00080E896E046DF40E05BE162E080EA96E071
:100F000040DF40E05BE164E080EA96E03ADF43E006
:100F100050E062E080E696E034DF43E050E068E0D5
:100F200080E696E02EDF43E050E068E080EA96E05D
:100F300028DF43E050E061E080E696E022DF43E016
:100F400050E068E080E096E01CDF41E050E060E1C6
:100F500080E896E016DF43E050E062E080E696E04D
:100F600010DF43E050E068E080E696E00ADF40E012
:100F700050E064E080E696E004DF43E050E060E1AA
:100F800080EA96E0FEDE40E050E061E080E096E03E
:100F9000F8DE40E050E064E080E096E0F2DE40E021
:100FA00050E062E080E296E0ECDE43E050E068E092
:100FB00080E496E0E6DE40E050E064E080E496E025
:100FC000E0DE43E050E068E080E696E0DADE40E014
:100FD00050E064E080E696E0D4DE43E050E068E074
:100FE00080E896E0CEDE40E050E064E080E896E005
:100FF000C8CE0895811522E0920761F48091A12264
:1010000091E0980F9093A122811112C062E081E0DB
:1010100049CC08958034924059F48091A02291E007
:10102000980F9093A022811103C062E082E03ACC35
:101030000895811522E0920759F48091A1228150F0
:101040008093A122811111C062E081E041CC08951A
:101050008034924051F48091A02281508093A0224C
:10106000811103C062E082E033CC0895EF92FF92D9
:101070001F93CF93DF931F921F92CDB7DEB77C01F2
:101080008FB78983F8941981C701B4DFF701808194
:10109000816080831FBF809196238F3F09F4FFCF2B
:1010A0008FB78A83F8949A81E5E9F3E281818F5FB3
:1010B00081839FBF0F900F90DF91CF911F91FF9081
:1010C000EF9008951F920F920FB60F9211240BB656
:1010D0000F922F933F934F935F936F937F938F93D1
:1010E0009F93AF93BF93EF93FF934091240250914E
:1010F0002502E0919D23F0919E2361E080E092E043
:101100001995FF91EF91BF91AF919F918F917F9131
:101110006F915F914F913F912F910F900BBE0F9068
:101120000FBE0F901F9018951F920F920FB60F923F
:1011300011240BB60F922F933F934F935F936F93AE
:101140007F938F939F93AF93BF93EF93FF934091C0
:101150002C0250912D02E0919D23F0919E2362E09C
:1011600080E092E01995FF91EF91BF91AF919F912F
:101170008F917F916F915F914F913F912F910F9040
:101180000BBE0F900FBE0F901F9018951F920F92DD
:101190000FB60F9211240BB60F922F933F934F93DC
:1011A0005F936F937F938F939F93AF93BF93EF93CF
:1011B000FF934091340250913502E0919D23F091CC
:1011C0009E2364E080E092E01995FF91EF91BF913A
:1011D000AF919F918F917F916F915F914F913F91CF
:1011E0002F910F900BBE0F900FBE0F901F90189570
:1011F0001F920F920FB60F9211240BB60F922F93DE
:101200003F934F935F936F937F938F939F93AF938E
:10121000BF93EF93FF9340913C0250913D02E091C8
:101220009D23F0919E2368E080E092E01995FF9164
:10123000EF91BF91AF919F918F917F916F915F914E
:101240004F913F912F910F900BBE0F900FBE0F90BB
:101250001F9018951F920F920FB60F9211240BB684
:101260000F922F933F934F935F936F937F938F933F
:101270009F93AF93BF93EF93FF934091640250917C
:101280006502E0919B23F0919C2361E080E492E071
:101290001995FF91EF91BF91AF919F918F917F91A0
:1012A0006F915F914F913F912F910F900BBE0F90D7
:1012B0000FBE0F901F9018951F920F920FB60F92AE
:1012C00011240BB60F922F933F934F935F936F931D
:1012D0007F938F939F93AF93BF93EF93FF9340912F
:1012E0006C0250916D02E0919B23F0919C2362E08F
:1012F00080E492E01995FF91EF91BF91AF919F919A
:101300008F917F916F915F914F913F912F910F90AE
:101310000BBE0F900FBE0F901F9018951F920F924B
:101320000FB60F9211240BB60F922F933F934F934A
:101330005F936F937F938F939F93AF93BF93EF933D
:10134000FF934091740250917502E0919B23F091BC
:101350009C2364E080E492E01995FF91EF91BF91A6
:10136000AF919F918F917F916F915F914F913F913D
:101370002F910F900BBE0F900FBE0F901F901895DE
:101380001F920F920FB60F9211240BB60F922F934C
:101390003F934F935F936F937F938F939F93AF93FD
:1013A000BF93EF93FF9340917C0250917D02E091B7
:1013B0009B23F0919C2368E080E492E01995FF91D3
:1013C000EF91BF91AF919F918F917F916F915F91BD
:1013D0004F913F912F910F900BBE0F900FBE0F902A
:1013E0001F901895BF92CF92DF92EF92FF920F93CA
:1013F0001F93CF93DF931F92CDB7DEB78C017B0194
:10140000811522E0920771F461E270E082E01FD161
:10141000C82ED12C60E270E082E019D1DC2CCC2403
:10142000C82A10C080349240C1F565E270E082E0C5
:101430000ED1C82ED12C64E270E082E008D1DC2C01
:10144000CC24C82A8FB78983F894B980C801D2DD2B
:10145000F801808192E09083C486D586F7012581CA
:101460003681F801208F318FF7019281F801928344
:10147000F7019481F8019483F7019381F801938334
:10148000F7019181F80191838170F7019081892B97
:10149000F8018083C801CDDDBFBE0F90DF91CF91F1
:1014A0001F910F91FF90EF90DF90CF90BF90089524
:1014B000DF92EF92FF920F931F93CF93DF931F92D0
:1014C000CDB7DEB78C017B018FB78983F894D980C3
:1014D000C80190DDF8018081807CF7018083F801EC
:1014E000808D918DF70185839683F8018281F701C4
:1014F0008283F8018481F7018483F8018381F701F5
:101500008383F8018181F7018183C80192DDDFBE09
:101510000F90DF91CF911F910F91FF90EF90DF908F
:101520000895AF92BF92CF92DF92EF92FF920F9306
:101530001F93CF93DF931F92CDB7DEB76C01B62E0A
:101540007A01862F837029F4962F9695969582E0DE
:1015500002C0962F80E090FF8F5F8601005E1F4FD4
:1015600098E0899F000D111D11248FB78983F8948D
:10157000A980C6013FDDF7018081F8018083F70172
:101580008281F8018283F7018181F8018183B0FEB5
:1015900004C0F7018381F8018683C6014ADDAFBE2E
:1015A0000F90DF91CF911F910F91FF90EF90DF90FF
:1015B000CF90BF90AF900895AF92BF92CF92DF923D
:1015C000EF92FF920F931F93CF93DF931F92CDB7AC
:1015D000DEB76C01B62E7A01862F837029F4962F20
:1015E0009695969582E002C0962F80E090FF8F5FDF
:1015F0008601005E1F4F98E0899F000D111D112488
:101600008FB78983F894A980C601F4DCF801808142
:10161000F7018083F8018281F7018283F8018181DB
:10162000F7018183B0FE04C0F8018681F70183834E
:10163000C601FFDCAFBE0F90DF91CF911F910F91DC
:10164000FF90EF90DF90CF90BF90AF9008954091C2
:10165000CA01E62FF72F8093CA0184914093CA01F3
:101660000895CF92DF92EF92FF920F931F93CF9343
:10167000DF93EC01D901C801B695A7959795879599
:10168000481759076A077B0778F46A017B01CC0C7D
:10169000DD1CEE1CFF1CC901B801A70196010E94C8
:1016A00071192150310902C020E030E0832F8F7082
:1016B0008F832E83DF91CF911F910F91FF90EF9039
:1016C000DF90CF900895DF92EF92FF920F931F93D8
:1016D000CF93DF931F92CDB7DEB77C018B010097CC
:1016E00009F4B6C1803C910521F460E180E0DAD8CC
:1016F000AFC180E8E81681E0F80621F462E080E0FE
:10170000D1D8A6C1E114E1E0FE0621F461E080E059
:10171000C9D89EC1F0E8EF16F3E0FF0621F461E0BE
:1017200081E0C0D895C130E9E31633E0F30621F437
:1017300061E082E0B7D88CC1E11482E0F80621F4C0
:1017400062E081E0AFD884C1E0E4EE16E2E0FE069C
:1017500021F462E082E0A6D87BC1F0E2EF16F3E06C
:10176000FF0621F464E082E09DD872C1E11438E004
:10177000F30621F461E083E095D86AC1E11489E0C1
:10178000F80621F461E084E08DD862C1E114EAE05A
:10179000FE0621F461E085E085D85AC1E114FBE042
:1017A000FF0621F461E086E07DD852C130E4E31603
:1017B00038E0F30621F462E083E074D849C180E4A4
:1017C000E81689E0F80621F462E084E06BD840C1B5
:1017D000E0E4EE16EAE0FE0621F462E085E062D87D
:1017E00037C1F0E9EF16F8E0FF0621F464E083E08A
:1017F00059D82EC130E9E31639E0F30621F464E04C
:1018000084E050D825C180E9E8168AE0F80621F482
:1018100064E085E047D81CC1E0E9EE16EBE0FE0687
:1018200021F464E086E03ED813C1F0ECEF16F8E056
:10183000FF0621F468E083E035D80AC130ECE316F6
:1018400039E0F30621F468E084E02CD801C180EA95
:10185000E81688E0F80661F460E183E023D8E0EA66
:10186000F8E084818F7E8483F8012481225050C067
:10187000F0EAEF16F9E0FF0621F460E184E012D807
:10188000E7C030EAE3163AE0F30621F460E185E0D0
:1018900009D8DEC080EAE8168BE0F80621F460E1A2
:1018A00086E000D8D5C0E0EBEE16E8E0FE0629F4AD
:1018B00060E283E00E945204CBC0F0EBEF16F9E047
:1018C000FF0629F460E284E00E945204C1C030E8BF
:1018D000E31634E0F30629F460E483E00E94520446
:1018E000B7C080EAE81684E0F80629F460E485E0F1
:1018F0000E945204ADC0F70184818F7E8483FB0176
:1019000024812250C701F0EAEF16F8E0FF0649F4FF
:1019100080914E0684FDA5C00F2EF1E1DF2EF02D43
:10192000A4C0803B38E0930791F0803AE9E09E073D
:1019300049F430916E0634FD9BC00F2EF9E1DF2E85
:10194000F02D16C0803BF9E09F07F1F004C00F2E88
:10195000F5E1DF2EF02D803A3AE0930749F48091CB
:101960008E0684FD8AC00F2EF1E2DF2EF02D15C009
:10197000803A9B4091F48091AE0684FD0AC00F2E00
:10198000F9E2DF2EF02D09C00F2EFDE1DF2EF02D44
:1019900004C00F2EFDE2DF2EF02DED2DE695E6952D
:1019A000E69530E2E39FF0011124FA5F3D2D377098
:1019B00081E090E0032E02C0880F991F0A94E2F79D
:1019C0008183223010F040E001C040E4DF015096F6
:1019D000A30FB11D9FB79983F89439812C9127707B
:1019E0002C939C91942B9C933FBF8583F701858119
:1019F000806C8583F80184818D7F813029F4F70123
:101A000085818260858304C0F70185818D7F858310
:101A1000F8018581882329F0F70185818460858319
:101A200004C0F70185818B7F8583F8014081518156
:101A30006281738100E814E82EE130E0C70111DE15
:101A4000F7018481886084838481806184831AC0E3
:101A5000F70184818F7E8483F80124812250C7019D
:101A600060CF0F2EF5E1DF2EF02D80EA98E06ACFEF
:101A70000F2EFDE1DF2EF02D7BCF0F2EF5E2DF2EB6
:101A8000F02D8BCF0F90DF91CF911F910F91FF9091
:101A9000EF90DF900895FC012081222359F0DC01B2
:101AA0001196E0EAF8E0918195FFFDCF20832D911A
:101AB0002111F9CF08951F93CF93DF93EC01142FD9
:101AC0004C8D4423D9F1111116C050E08C819D81B9
:101AD0000E94CB1A2C8D8C819D81820F911D8C834D
:101AE0009D832A813B818217930740F188819981E8
:101AF0008C839D8323C050E08E819F810E94CB1AEE
:101B00008C8D90E09195819591092E813F81280FD0
:101B1000391F2E833F83488159812417350730F4BC
:101B20002A813B81820F931F8E839F83123031F471
:101B30008A8D882319F08A8D81508A8F8A8D8F5FD4
:101B40008A8F80E0DF91CF911F910895FC01448D31
:101B50004423A9F050E026813781240F351F2683C6
:101B60003783828193812817390720F08081918102
:101B700086839783CB01668177810C94CB1A089575
:101B800080913D238F5F80933D2308950FB6F89495
:101B90000F9280914423909145230F900FBE08959A
:101BA00080913D23882321F081E080934023089594
:101BB000109240238091432390E0FC01EE0FFF1F21
:101BC000EE0FFF1FEE0FFF1F8E0F9F1FFC01EA5944
:101BD000FC4D8081811117C08091432381508093F7
:101BE00043238091432390E0FC01EE0FFF1FEE0F93
:101BF000FF1FEE0FFF1F8E0F9F1FFC01EA59FC4DC8
:101C00008081882349F38091432390E09C01220F37
:101C1000331F220F331F220F331F280F391FD90103
:101C2000AA59BC4D1196ED91FC9112970280F38157
:101C3000E02D1196ED93FC93129727593C4DE21736
:101C4000F30729F422813381FD0121833283FC01D2
:101C5000EE0FFF1FEE0FFF1FEE0FFF1F8E0F9F1FD8
:101C6000FC01EA59FC4D0180F281E02D86819781CB
:101C70008093932390939423089520913F23FC0114
:101C8000208320914423309145232183328308957A
:101C9000CF93DF93FC010FB6F8940F922091442369
:101CA0003091452380913F239081981729F08181BD
:101CB000928128173907A8F4A181B281EB014881EC
:101CC0005981C9018A1B9B0B8417950760F4CF01CA
:101CD000A21BB30B4A0F5B1F48835983CEDF80E002
:101CE00003C081E001C081E00F900FBEDF91CF9172
:101CF000089580914223882331F080913D238823E9
:101D000021F080E0089581E0089582E00895FC01CB
:101D10000396818392832FEF3FEF23833483858360
:101D200096838783908710820895CF93DF939C01D9
:101D3000FB01DC011196CD91DC911297C283D38314
:101D40008C819D81848395838C819D81DC01129699
:101D50006D937C9313976C837D8320873187F90182
:101D600080818F5F8083DF91CF910895CF93DF9340
:101D7000EB01488159814F3F2FEF520721F4FC01BD
:101D8000A781B0850DC0DC01139601C0DF0112965A
:101D9000ED91FC9113972081318142175307B0F7E1
:101DA0001296ED91FC911397EA83FB83C483D5834C
:101DB000AC83BD831296CD93DC9313978887998764
:101DC000FC0120812F5F2083DF91CF910895CF9375
:101DD000DF93EC01E0919323F0919423828393832A
:101DE0008091442390914523C817D90760F46091EE
:101DF00093237091942380915023909151236E5F8F
:101E00007F4FB4DF16C0609193237091942380912B
:101E10005223909153236E5F7F4FA8DF80910D2056
:101E200090910E20C817D90720F4C0930D20D093AD
:101E30000E20DF91CF910895FC0162837383808728
:101E400091874617570788F0421B530B8485958569
:101E500048175907D0F4BF016E5F7F4F8091272349
:101E60009091282383DF80E008954217530718F4E8
:101E70006217730760F4BF016E5F7F4F8091292363
:101E800090912A2373DF80E0089581E0089581E036
:101E90000895CF93DF93FC01A085B185C281D381E2
:101EA000848195818C839D83C481D5818281938136
:101EB0008A839B8311968D919C911297E817F9075D
:101EC00031F48481958111968D939C93129710869D
:101ED00011868C9181508C93DF91CF910895DF9280
:101EE000EF92FF920F931F93CF93DF9380913D2347
:101EF0008111B3C080914423909145230196809332
:101F0000442390934523E0904423F0904523E1142B
:101F1000F10499F5809152239091532320915023FD
:101F20003091512320935223309353238093502395
:101F30009093512380913F238F5F80933F23E091C3
:101F40005223F09153238081811107C08FEF9FEFBF
:101F500080930D2090930E2010C0E0915223F091B9
:101F600053230580F681E02D0680F781E02D8281E4
:101F7000938180930D2090930E2080910D2090915D
:101F80000E20E816F90610F4D12C4FC0D12CE091A8
:101F90005223F09153238081811107C08FEF9FEF6F
:101FA00080930D2090930E2040C0E0915223F09139
:101FB00053230580F681E02DC681D7818A819B81DC
:101FC000E816F90628F480930D2090930E202DC07A
:101FD0008E010E5F1F4FC8015CDF8C899D89892BA4
:101FE00019F0CE010C9655DF8E89909143239817F6
:101FF00010F48093432390E09C01220F331F220FA3
:10200000331F220F331F820F931FB8018A599C4D33
:102010008CDEE0919323F09194239E898689981712
:1020200008F4B5CFDD24D394B2CFE0919323F0919F
:102030009423868990E0FC01EE0FFF1FEE0FFF1F37
:10204000EE0FFF1F8E0F9F1FFC01EA59FC4D808190
:10205000823048F0DD24D39406C0809141238F5F05
:1020600080934123D12C80914023882311F0DD24DB
:10207000D3948D2DDF91CF911F910F91FF90EF9011
:10208000DF900895CF93DF93EB01609193237091DC
:102090009423645F7F4F6ADE809193239091942311
:1020A0000296F7DE80914423909145238C0F9D1F6B
:1020B0008EDEDF91CF910895CF93DF93EB01609196
:1020C000932370919423645F7F4F2FDE809193233D
:1020D000909194230296DDDE8091442390914523D4
:1020E0008C0F9D1F74DEDF91CF9108950F931F9386
:1020F000CF93DF93DC011596ED91FC911697C68185
:10210000D7818E01045F1F4FC801C3DE80913D233C
:1021100081111AC00A501109C801BBDE8E89909145
:102120004323981710F48093432390E09C01220FDF
:10213000331F220F331F220F331F820F931FB8014B
:102140008A599C4DF2DD04C0B80187E493E2EDDDCD
:10215000E0919323F09194239E898689891720F436
:1021600081E08093402301C080E0DF91CF911F91F7
:102170000F910895FF920F931F93CF93DF93EC017C
:102180000FB6F8940F928E8D1816C4F489898111B8
:1021900005C014C08989811106C010C08E010F5E70
:1021A0001F4FFF24F394C801A1DF8111F092402357
:1021B0008E8D81508E8F8E8D181664F38FEF8E8FDB
:1021C0000F900FBE0FB6F8940F928D8D1816C4F4B1
:1021D0008885811105C014C08885811106C010C092
:1021E0008E01085F1F4FFF24F394C8017FDF811128
:1021F000F09240238D8D81508D8F8D8D181664F354
:102200008FEF8D8F0F900FBEDF91CF911F910F91A8
:10221000FF900895CF93DF93EC010FB6F8940F92DF
:102220008D8D8F3F09F41D8E8E8D8F3F09F41E8E8C
:102230000F900FBE8A8D811103C0CE0141963CDF05
:10224000CE0198DFDF91CF9108950F931F93CF9325
:10225000DF93FA01DC015A965C915A975B963C91A8
:10226000531710F02230D9F4422F8F01EC0123DCF8
:102270008E8D8F3F79F48989882399F0CE0141961C
:1022800035DF882381F00115110579F081E0F8012F
:1022900080830CC08E8D8F5F8E8F81E007C080E0C1
:1022A00005C081E003C081E001C081E0DF91CF91F2
:1022B0001F910F9108950F931F938B0171E1FC0102
:1022C0007083319762E26083319723E32083012E8C
:1022D000000C220B330B3197008331971083319719
:1022E000208331971082319720E820833197108224
:1022F000319722E02083319723E02083319724E037
:102300002083319725E02083319726E02083319781
:1023100027E02083319728E02083319729E020832C
:10232000319720E1208331977083319722E1208318
:10233000319723E12083319724E12083319725E1F0
:102340002083319726E12083319727E1208331973D
:1023500028E12083319729E12083319720E22083EF
:10236000319721E2208331976083319723E22083E4
:102370003197408331975083319726E220833197FC
:1023800027E22083319728E22083319729E22083B6
:10239000319720E32083319721E3208387971F9192
:1023A0000F910895F894E0E7F0E083818A7F8383BA
:1023B000E0E0F8E080E09AEF86A397A391E09683AF
:1023C000A0EAB0E012968C911297816012968C93DD
:1023D00090837894A0919323B09194230D900DBE97
:1023E0000D900EBEFF91EF91DF91CF91BF91AF9114
:1023F0009F918F917F916F915F914F913F912F911D
:102400001F910F91FF90EF90DF90CF90BF90AF9012
:102410009F908F907F906F905F904F903F902F9004
:102420001F900F900FBE0F90089581E008950F92B6
:102430000FB6F8940F921F9211242F923F924F9251
:102440005F926F927F928F929F92AF92BF92CF9244
:10245000DF92EF92FF920F931F932F933F934F932F
:102460005F936F937F938F939F93AF93BF93CF931C
:10247000DF93EF93FF93A0919323B09194230DB634
:102480000D920EB60D928CDBA0919323B091942304
:102490000D900DBE0D900EBEFF91EF91DF91CF918B
:1024A000BF91AF919F918F917F916F915F914F916C
:1024B0003F912F911F910F91FF90EF90DF90CF9060
:1024C000BF90AF909F908F907F906F905F904F9054
:1024D0003F902F901F900F900FBE0F900895C6E66B
:1024E000D3E288818230F0F3A2DFFBCFDF92EF925C
:1024F000FF920F931F93CF93DF930FB6F8940F9231
:1025000080913D23815080933D2380913D23811113
:102510005DC080914623811130C05BC0D701159604
:10252000ED91FC911697C681D781CE010C96B1DC56
:102530008E010E5F1F4FC801ACDC8E899091432342
:10254000981710F48093432390E09C01220F331FCF
:10255000220F331F220F331F820F931FB8018A5996
:102560009C4DE3DBE0919323F09194239E8986892F
:10257000981758F0D092402308C00F2EF7E4EF2EA2
:10258000F3E2FF2EF02DDD24D394F7018081811139
:10259000C5CF80914123882391F0809141238823E6
:1025A00071F0C1E09CDC8111C093402380914123F4
:1025B000815080934123809141238111F3CF8091F9
:1025C0004023813029F433DF81E003C080E001C083
:1025D00080E00F900FBEDF91CF911F910F91FF9080
:1025E000EF90DF900895CF93DF93EC01892B91F06A
:1025F000C7DA8091442390914523C80FD91F809159
:10260000932390919423029644DCCE01E0DB6EDFAD
:10261000811101C00CDFDF91CF910895CF93DF933B
:10262000EC010FB6F8940F92488159812C8D30E05F
:102630007B8D729FC001739F900D1124FA01E80FEA
:10264000F91FEA83FB831A8E4C835D83821B930BF5
:10265000840F951F8E839F838FEF8D8F8E8F6111D7
:102660000AC08885882369F0CE0108963FDD813055
:1026700041F4DDDE06C0CE01089649DBCE0141966D
:1026800046DB0F900FBE81E0DF91CF910895AF92AE
:10269000BF92CF92DF92EF92FF920F931F93CF934F
:1026A000DF93CDB7DEB72597CDBFDEBF8C016B01C1
:1026B0004C835D83A22EB12C7C0188E0E80EF11CD6
:1026C0000FB6F8940F92F801928D838D981718F039
:1026D000F2E0AF1215C04A2DB601C801ECD9F801DD
:1026E0009189992339F0C801419600DD813021F4A8
:1026F0009EDE02C081119BDE0F900FBE81E046C0BE
:102700008C819D81892B21F40F900FBE80E03EC00B
:10271000B11005C0CE010196B0DABB24B3940F907E
:102720000FBE2EDA0FB6F8940F92F801858D8F3F09
:1027300009F4158EF801868D8F3F09F4168E0F90DF
:102740000FBEBE016C5F7F4FCE010196A1DA8111F1
:1027500019C00FB6F8940F92F801928D0F900FBE2A
:10276000838D98130BC06C817D81C7018BDCC80100
:1027700001DDBCDE8111A4CF5ADEA2CFC801FADC94
:10278000B5DE9ECFC801F6DCB1DE80E02596CDBF78
:10279000DEBFDF91CF911F910F91FF90EF90DF90FF
:1027A000CF90BF90AF900895AF92BF92CF92DF923B
:1027B000EF92FF920F931F93CF93DF93CDB7DEB7C6
:1027C0002597CDBFDEBF8C016B014C835D83A22EAC
:1027D000B12C7C0181E1E80EF11C0FB6F8940F9248
:1027E000F801828D882321F1E680F780B601C801C7
:1027F000ADD9A1100EC0F801828D8150828F8085E5
:10280000882391F0C801089671DC813069F40FDEED
:102810000BC0F801E682F7828189882329F0C8017C
:10282000419664DC811103DE0F900FBE81E045C04C
:102830008C819D81892B21F40F900FBE80E03DC0DB
:10284000B11005C0CE01019618DABB24B3940F90E5
:102850000FBE96D90FB6F8940F92F801858D8F3F71
:1028600009F4158EF801868D8F3F09F4168E0F90AE
:102870000FBEBE016C5F7F4FCE01019609DA811158
:1028800018C00FB6F8940F92F801828D0F900FBE0A
:1028900081110BC06C817D81C701F4DBC8016ADC4A
:1028A00025DE81119ACFC3DD98CFC80163DC1EDE1F
:1028B00094CFC8015FDC1ADE80E02596CDBFDEBF75
:1028C000DF91CF911F910F91FF90EF90DF90CF900C
:1028D000BF90AF9008950F920FB6F8940F921F9289
:1028E00011242F923F924F925F926F927F928F921C
:1028F0009F92AF92BF92CF92DF92EF92FF920F938F
:102900001F932F933F934F935F936F937F938F9377
:102910009F93AF93BF93CF93DF93EF93FF93A091D8
:102920009323B09194230DB60D920EB60D92D7DA83
:10293000811136D9A0919323B09194230D900DBEAF
:102940000D900EBEFF91EF91DF91CF91BF91AF91AE
:102950009F918F917F916F915F914F913F912F91B7
:102960001F910F91FF90EF90DF90CF90BF90AF90AD
:102970009F908F907F906F905F904F903F902F909F
:102980001F900F900FBE0F901895CF93DF93EC011F
:10299000F7D8CE01DFD4EC01A9DDCE01DF91CF91D4
:1029A00008950F931F93CF93DF93082F162F66235D
:1029B000A9F0869FC00111248096E7DFEC01009703
:1029C00021F412C0C883D98303C04F9688839983AA
:1029D0000B8F1C8F61E0CE0121DE06C08FE190E0FD
:1029E000D4DFEC01892B71F7CE01DF91CF911F91DC
:1029F0000F9108950FB6F8940F928091252390912E
:102A00002623892BD1F484E393E281D98BE293E2EC
:102A10007ED984E393E28093292390932A238BE247
:102A200093E2809327239093282340E065E08AE097
:102A3000B8DF80932523909326230F900FBE08952F
:102A4000CF93DF93009729F0EC019AD8CE011AD5E5
:102A50004DDDDF91CF9108954F925F926F927F92FB
:102A60008F929F92AF92BF92CF92DF92EF92FF929E
:102A70000F93CF93DF934C01EB015A012901C1144D
:102A8000D10431F4CA0181DF6C01892B09F4C7C07C
:102A900086E290E07ADF3C01009769F0FC01C78A8A
:102AA000D08EC50101978C0D9D1D2881218F288115
:102AB000211104C013C0C601C3DFB1C0D3015A96AF
:102AC000FE013196AE01485F5F4FEF0121912D93DA
:102AD0002881222319F04E175F07B9F7F30110A2DE
:102AE000402F053008F044E0F301468B1286138630
:102AF000148A158A6086718625E030E0241B31092E
:102B000024873587628A738A11A212A213A214A2A3
:102B100015A2A201B401CFDBF30180839183E114FC
:102B2000F10419F0F701608271820FB6F8940F92E8
:102B3000809146238F5F80934623809193239091C9
:102B40009423892B61F56092932370929423809152
:102B50004623813099F5C6E6D3E20F2EF3E9EF2E36
:102B6000F3E2FF2EF02DCE01D2D82996CE15DF0547
:102B7000D1F78DE593E2CBD884E593E2C8D887E41A
:102B800093E2C5D88DE593E280935223909353232B
:102B900084E593E280935023909351230FC080915A
:102BA000422381110BC0E0919323F09194238689F5
:102BB000081720F0609293237092942380913E2313
:102BC0008F5F80933E23F30186899091432398176A
:102BD00010F480934323B3016E5F7F4F90E09C011C
:102BE000220F331F220F331F220F331F820F931F19
:102BF0008A599C4D9AD80F900FBE8091422388230A
:102C000051F0E0919323F09194238689801728F462
:102C10000EDC81E005C081E003C081E001C08FEFE0
:102C2000DF91CF910F91FF90EF90DF90CF90BF9009
:102C3000AF909F908F907F906F905F904F9008958E
:102C4000AF92BF92CF92DF92EF92FF920F93D2DEBC
:102C50008091252390912623892B89F0A12CB12CDA
:102C6000C12CD12CE12CF12C03E020E030E045E533
:102C700050E06FE070E284E297E1EEDE01C080E0B8
:102C80000F91FF90EF90DF90CF90BF90AF9008959D
:102C9000AF92BF92CF92DF92EF92FF920F93A12C4F
:102CA000B12CC12CD12CE12CF12C00E020E030E043
:102CB00045E550E067E170E28FE692E1CDDE8130DC
:102CC00059F4BEDF813041F4F8948093422310928E
:102CD00044231092452366DB0F91FF90EF90DF9025
:102CE000CF90BF90AF900895EF92FF920F931F93F4
:102CF000CF93DF93CDB7DEB72597CDBFDEBFE09092
:102D00002523F0902623E114F10429F1F9016983C8
:102D10004A835B838C839D836630ACF40E94790E7A
:102D2000823041F420E0A801BE016F5F7F4FC701F0
:102D3000AEDC12C020E040E050E0BE016F5F7F4F8C
:102D4000C701A5DC09C020E0AF01BE016F5F7F4F66
:102D5000C7017BDA01C080E02596CDBFDEBFDF91E1
:102D6000CF911F910F91FF90EF900895AF92BF9276
:102D7000CF92DF92EF92FF920F931F93CF93DF9347
:102D80006C010E94C60D7C018091A3229091A42227
:102D9000E816F90608F046C02EC00580F681E02D41
:102DA000A080B180C681D7818E010E5F1F4FC80100
:102DB00070D8E989FA89CE0119958E858130D9F4C8
:102DC0008C859D858A0D9B1DA816B90660F48A83A3
:102DD0009B83C887D987B8018091292390912A23A2
:102DE0000E94B60E08C000E010E020E030E0A5012F
:102DF00060E0CE0179DFE0912923F0912A238081E0
:102E00008111CBCF80912723909128238093292370
:102E100090932A23E0932723F093282381E0F6015F
:102E2000808302C0F6011082E092A322F092A422D5
:102E3000C701DF91CF911F910F91FF90EF90DF902D
:102E4000CF90BF90AF900895CF93DF9300D000D084
:102E5000CDB7DEB7CE0101965C01E82EFB2CE091E8
:102E60002923F0912A238081882309F4B9C00580A1
:102E7000F681E02DC080D1800E94C00DC50176DFB3
:102E80008C018981811143C00C151D0598F12EDB41
:102E9000E0912923F0912A230580F681E02D868098
:102EA0009780C40102960E94490FD4011E968C910E
:102EB0001E978130A9F41C966D917C911D976C0D25
:102EC0007D1D9601A801C4010E941C0F813041F4B0
:102ED00000E010E020E030E0A60160E0C40104DF83
:102EE000D4015196ED91FC915297C40119956BC094
:102EF000C12CD12CB601601B710B809125239091C0
:102F0000262388D9F3DA81115EC091DA5CC0EEDA4B
:102F10005AC0898188230CF456C0CC80DD80F6012C
:102F200082859385892B21F0C60102960E94490F64
:102F3000CE0106961BDFAC018981082E000C990B8F
:102F4000AA0BBB0B8A30910508F03DC0FC01882715
:102F5000E250FF4F8F4FE7C12A813B81D6011C967B
:102F60006D917C911D97620F731FC6010E941C0F0B
:102F7000813049F5D6015196ED91FC915297C601E9
:102F80001995F60186858130F1F44A815B8184854B
:102F90009585480F591F00E010E020E030E060E028
:102FA000C601A2DE10C06A817B81D6011C966D939A
:102FB0007C931D97640F751F9A01C6010E941C0F18
:102FC00002C0C6013DDD20E040E050E06E2D7F2DC7
:102FD0008091252390912623E7DB81119ACF3FCF63
:102FE0000E94C00DC501C2DE8C018981882309F4CD
:102FF0007FCF8DCFE0E4F6E0808181608083E0E0E8
:10300000F8E082E0808386E1818388EE93E086A306
:1030100097A310A611A60895CF93DF93CDB7DEB77F
:103020002B97CDBFDEBFBE016F5F7F4F80E092E088
:103030000E94580AAE01485F5F4F61E080E092E075
:103040000E94DC0A9A818B818F7880618B8382E079
:103050008D83892F817E8A831C82BE016F5F7F4FA3
:1030600080E092E00E94F20981E088871986AE0133
:10307000485F5F4F61E080E092E00E94910A80E04B
:1030800092E00E9436082B96CDBFDEBFDF91CF9134
:103090000895CF93DF931F92CDB7DEB78FB78983A3
:1030A000F8949981E0E0F2E08081846080839FBFA2
:1030B000868180FFFDCFE0E0F2E081E0868384A19D
:1030C00095A10F90DF91CF9108950CE110E26894E3
:1030D000FF24F7F8C5EAD2E2DCDF9F938F931F93BA
:1030E0000F931F92FF92DF93CF935ED2CE010E9487
:1030F0004B0D8AEF90E077DA8DB79EB708968DBFBB
:103100009EBFEACF80914806869581700895FADFC8
:10311000882329F08CE290E20E944B0D04C08AE3E0
:1031200090E20E944B0D8AEF90E05DDAF0CF8823A9
:1031300049F026E030E240E160E08AE490E20C945D
:103140009806089526E030E240E160E088E590E2EC
:103150000C949806089500E416E0C8E0E12C689409
:10316000FF24F3F8CFDF882369F08091A222811138
:1031700004C040DF81E08093A22281E0D8DFF80123
:10318000C5830DC08091A222882329F0F70110A6E3
:1031900011A61092A22280E0CADFF801C6838AEF4E
:1031A00090E021DADFCF7F936F939F938F9386E632
:1031B00090E29F938F931F9280E88F9385EA92E22B
:1031C0009F938F93F1D126E030E240E060E085EA02
:1031D00092E20E9498068DB79EB70A968DBF9EBF59
:1031E000089508EE13E00F2EFDE7FF2EF02DC0E04E
:1031F000D8E04FDFAC014D3A8DE05807C0F4483EAF
:1032000083E05807B8F09A01285E33403695279539
:103210003695279536952795A1E2BDE08CD09695F9
:103220008795F89EB001F99E700D112405C0602F9E
:10323000712F02C060E070E068A779A7CA01B3DF10
:1032400082E390E0D0D9D5CF0E9442040E945D076E
:103250000E94240580E180938506C0E4D6E018E052
:1032600019831D8384E08A83E0EAF8E0138283E017
:1032700085838CE08683178288E18483CDDE82E0BB
:103280008A831983B7DEA12CB12CC12CD12CE12C5F
:10329000F12C02E020E030E048EE53E068E770E215
:1032A00081EF98E1D9DB01E020E030E048EE53E027
:1032B00061E870E28BEA98E1CFDB20E030E048EE95
:1032C00053E06AE870E285E698E1C6DB20E030E092
:1032D00048EE53E064E970E287E898E1BDDBD8DCB2
:1032E000FFCFA1E21A2EAA1BBB1BFD010DC0AA1F16
:1032F000BB1FEE1FFF1FA217B307E407F50720F05F
:10330000A21BB30BE40BF50B661F771F881F991FD9
:103310001A9469F760957095809590959B01AC0122
:10332000BD01CF010895EE0FFF1F881F8BBF0790CF
:10333000F691E02D1994A29FB001B39FC001A39F05
:10334000700D811D1124911DB29F700D811D1124DE
:10335000911D08950F931F93CF93DF9382309105B2
:1033600010F482E090E0E091A123F091A22320E00C
:1033700030E0A0E0B0E0309719F140815181028146
:10338000138148175907C8F08417950769F41097F7
:1033900031F012960C93129713961C9327C000934A
:1033A000A1231093A22322C02115310519F0421741
:1033B000530718F49A01BD01EF01DF01F801DBCFDB
:1033C00021153105F9F0281B390B2430310580F423
:1033D0008A819B816115710521F0FB0182839383B2
:1033E00004C08093A1239093A223FE01329644C08F
:1033F000FE01E20FF31F819391932250310928833C
:1034000039833AC020919F233091A023232B41F48C
:10341000209102203091032020939F233093A023FA
:1034200020910020309101202115310541F42DB764
:103430003EB74091042050910520241B350BE091AC
:103440009F23F091A023E217F307A0F42E1B3F0B5C
:103450002817390778F0AC014E5F5F4F2417350706
:1034600048F04E0F5F1F40939F235093A0238193FA
:10347000919302C0E0E0F0E0CF01DF91CF911F9186
:103480000F910895CF93DF93009709F481C0FC0159
:10349000329712821382A091A123B091A223109798
:1034A00081F420813181820F931F20919F233091DD
:1034B000A0232817390751F5E0939F23F093A02309
:1034C00067C0ED0120E030E0CE17DF0740F44A810D
:1034D0005B819E0141155105F1F0EA01F5CFC283F0
:1034E000D38340815181840F951FC817D90759F4A0
:1034F00088819981840F951F0296808391838A81A8
:103500009B81828393832115310529F4E093A123C4
:10351000F093A2233DC0E901EA83FB8349915991CD
:10352000C40FD51FEC17FD0761F480819181840FD2
:10353000951F0296E90188839983828193818A830A
:103540009B83E0E0F0E012968D919C911397009799
:1035500019F0FD01DC01F7CF8D919C9111979D0130
:103560002E5F3F4F820F931F20919F233091A02306
:103570002817390769F4309729F41092A123109283
:10358000A22302C012821382A0939F23B093A02390
:10359000DF91CF910895FB01DC0102C001900D92F3
:1035A00041505040D8F708950F931F93CF93DF9366
:1035B000CDB7DEB72E97CDBFDEBF0E891F89888DB0
:1035C000998D26E02C8309831A8397FF02C080E03F
:1035D00090E801978D839E83AE01445E5F4F6A8DB4
:1035E0007B8DCE01019616D04D815E8157FD0AC0BC
:1035F0002F813885421753070CF49A01F801E20F26
:10360000F31F10822E96CDBFDEBFDF91CF911F91A9
:103610000F9108952F923F924F925F926F927F92F7
:103620008F929F92AF92BF92CF92DF92EF92FF92D2
:103630000F931F93CF93DF93CDB7DEB72B97CDBFFB
:10364000DEBF6C017B018A01FC0116821782838137
:1036500081FFBFC1CE0101963C01F6019381F701C4
:1036600093FD859193FF81917F01882309F4ADC17A
:10367000853239F493FD859193FF81917F018532E5
:1036800021F4B60190E0D3D1E8CF912C212C312C3C
:10369000FFE1F315D8F08B3279F038F4803279F00D
:1036A0008332A1F4232D20611DC08D3261F080335F
:1036B00069F4232D216016C0832D8260382EE32DFE
:1036C000E4603E2E2AC0F32DF8601DC037FC2DC0EB
:1036D00020ED280F2A3040F08E32B9F436FC75C147
:1036E000232D2064322E19C036FE06C08AE0989E33
:1036F000200D1124922E11C0EAE02E9E200D1124DF
:10370000222EF32DF0623F2E08C08C3621F4832D3B
:103710008068382E02C0883641F4F70193FD859108
:1037200093FF81917F018111B3CF982F9F7D955495
:10373000933028F40C5F1F4F9FE399830DC08336AD
:1037400031F0833771F0833509F055C020C0F8019E
:10375000808189830E5F1F4F88248394912C5301AD
:1037600012C02801F2E04F0E511CF801A080B18078
:1037700036FE03C0692D70E002C06FEF7FEFC50118
:103780004BD14C018201F32DFF773F2E15C028014C
:1037900022E0420E511CF801A080B18036FE03C029
:1037A000692D70E002C06FEF7FEFC5012AD14C0197
:1037B000F32DF0683F2E820133FC19C0822D90E07A
:1037C00088169906A0F4B60180E290E030D12A94E0
:1037D000F5CFF50137FC859137FE81915F01B60188
:1037E00090E025D121102A9421E0821A91088114B9
:1037F000910479F7E1C0843611F0893639F5F80182
:1038000037FE07C060817181828193810C5F1F4FF9
:1038100008C060817181072E000C880B990B0E5F28
:103820001F4FF32DFF763F2E97FF09C0909580958F
:10383000709561957F4F8F4F9F4FF0683F2E2AE024
:1038400030E0A30130D1882E861844C0853731F48A
:10385000232D2F7EB22E2AE030E025C0932D997FB4
:10386000B92E8F36C1F018F4883579F0AEC08037A4
:1038700019F0883721F0A9C0E92FE061BE2EB4FE0F
:103880000DC0FB2DF460BF2E09C034FE0AC0292FE5
:103890002660B22E06C028E030E005C020E130E00E
:1038A00002C020E132E0F801B7FE07C060817181FB
:1038B000828193810C5F1F4F06C06081718180E01F
:1038C00090E00E5F1F4FA301EED0882E8618FB2DCF
:1038D000FF773F2E36FE0DC0232D2E7FA22E89149A
:1038E00058F434FE0BC032FC09C0832D8E7EA82E06
:1038F00005C0B82CA32C03C0B82C01C0B92CA4FE61
:103900000FC0FE01E80DF11D8081803321F49A2D56
:10391000997EA92E09C0A2FE06C0B394B39404C038
:103920008A2D867809F0B394A3FC10C0A0FE06C0CF
:10393000B21480F4280C922C9B180DC0B21458F4C9
:10394000B60180E290E073D0B394F8CFB21418F4CB
:103950002B1802C0982C212CA4FE0FC0B60180E3C6
:1039600090E065D0A2FE16C0A1FC03C088E790E0FD
:1039700002C088E590E0B6010CC08A2D867851F02F
:10398000A1FE02C08BE201C080E2A7FC8DE2B6017D
:1039900090E04DD0891430F4B60180E390E047D038
:1039A0009A94F8CF8A94F301E80DF11D8081B60155
:1039B00090E03DD08110F6CF222009F44ECEB60122
:1039C00080E290E034D02A94F7CFF6018681978187
:1039D00002C08FEF9FEF2B96CDBFDEBFDF91CF915F
:1039E0001F910F91FF90EF90DF90CF90BF90AF901D
:1039F0009F908F907F906F905F904F903F902F900F
:103A00000895FC010590615070400110D8F7809531
:103A100090958E0F9F1F0895FC016150704001909A
:103A20000110D8F7809590958E0F9F1F08950F93E2
:103A30001F93CF93DF93FB01238121FD03C08FEF01
:103A40009FEF2CC022FF16C046815781248135810B
:103A50004217530744F4A081B1819D012F5F3F4F6E
:103A6000208331838C93268137812F5F3F4F2683BC
:103A7000378314C08B01EC01FB010084F185E02D3C
:103A80001995892BE1F6D80116968D919C9117977F
:103A9000019616968D939C931797CE01DF91CF9147
:103AA0001F910F910895FA01AA27283051F1203172
:103AB00081F1E8946F936E7F6E5F7F4F8F4F9F4FC2
:103AC000AF4FB1E03ED0B4E03CD0670F781F891F04
:103AD0009A1FA11D680F791F8A1F911DA11D6A0FD2
:103AE000711D811D911DA11D20D009F468943F9185
:103AF0002AE0269F11243019305D3193DEF6CF0184
:103B00000895462F4770405D4193B3E00FD0C9F749
:103B1000F6CF462F4F70405D4A3318F0495D31FDB6
:103B20004052419302D0A9F7EACFB4E0A695979509
:103B3000879577956795BA95C9F7009761057105DF
:103B400008959B01AC010A2E069457954795379529
:103B50002795BA95C9F7620F731F841F951FA01D83
:063B60000895F894FFCF68
:103B66000000A32320000010020607207DFFFF545B
:103B76006D72205376630049444C45004C445220F4
:103B860056616C75653A2025750D0A005049523A02
:103B9600204163746976650D0A005049523A2049FE
:103BA6006E6163746976650D0A005049523A204188
:103BB60063746976652020005049523A20496E6147
:103BC6006374697665004C44523A2025346420506B
:103BD600574D3A20253464004C4452205461736B8F
:103BE60000504952205461736B004C445220555387
:0E3BF600415254005049522055534152540040
:00000001FF
